{
  "contractName": "AnnotationRegistry",
  "abi": [
    {
      "inputs": [],
      "stateMutability": "nonpayable",
      "type": "constructor"
    },
    {
      "anonymous": false,
      "inputs": [
        {
          "indexed": true,
          "internalType": "bytes32",
          "name": "articleHash",
          "type": "bytes32"
        },
        {
          "indexed": true,
          "internalType": "address",
          "name": "factChecker",
          "type": "address"
        },
        {
          "indexed": false,
          "internalType": "enum AnnotationRegistry.FlagType",
          "name": "flagType",
          "type": "uint8"
        },
        {
          "indexed": false,
          "internalType": "uint256",
          "name": "confidence",
          "type": "uint256"
        }
      ],
      "name": "AnnotationAdded",
      "type": "event"
    },
    {
      "anonymous": false,
      "inputs": [
        {
          "indexed": true,
          "internalType": "address",
          "name": "factChecker",
          "type": "address"
        }
      ],
      "name": "FactCheckerRemoved",
      "type": "event"
    },
    {
      "anonymous": false,
      "inputs": [
        {
          "indexed": true,
          "internalType": "address",
          "name": "factChecker",
          "type": "address"
        }
      ],
      "name": "FactCheckerVerified",
      "type": "event"
    },
    {
      "inputs": [],
      "name": "admin",
      "outputs": [
        {
          "internalType": "address",
          "name": "",
          "type": "address"
        }
      ],
      "stateMutability": "view",
      "type": "function",
      "constant": true
    },
    {
      "inputs": [
        {
          "internalType": "bytes32",
          "name": "",
          "type": "bytes32"
        },
        {
          "internalType": "uint256",
          "name": "",
          "type": "uint256"
        }
      ],
      "name": "articleAnnotations",
      "outputs": [
        {
          "internalType": "bytes32",
          "name": "articleHash",
          "type": "bytes32"
        },
        {
          "internalType": "address",
          "name": "factChecker",
          "type": "address"
        },
        {
          "internalType": "enum AnnotationRegistry.FlagType",
          "name": "flagType",
          "type": "uint8"
        },
        {
          "internalType": "string",
          "name": "ipfsHash",
          "type": "string"
        },
        {
          "internalType": "uint256",
          "name": "timestamp",
          "type": "uint256"
        },
        {
          "internalType": "uint256",
          "name": "confidence",
          "type": "uint256"
        }
      ],
      "stateMutability": "view",
      "type": "function",
      "constant": true
    },
    {
      "inputs": [
        {
          "internalType": "address",
          "name": "",
          "type": "address"
        }
      ],
      "name": "verifiedFactCheckers",
      "outputs": [
        {
          "internalType": "bool",
          "name": "",
          "type": "bool"
        }
      ],
      "stateMutability": "view",
      "type": "function",
      "constant": true
    },
    {
      "inputs": [
        {
          "internalType": "address",
          "name": "_factChecker",
          "type": "address"
        }
      ],
      "name": "verifyFactChecker",
      "outputs": [],
      "stateMutability": "nonpayable",
      "type": "function"
    },
    {
      "inputs": [
        {
          "internalType": "address",
          "name": "_factChecker",
          "type": "address"
        }
      ],
      "name": "removeFactChecker",
      "outputs": [],
      "stateMutability": "nonpayable",
      "type": "function"
    },
    {
      "inputs": [
        {
          "internalType": "bytes32",
          "name": "_articleHash",
          "type": "bytes32"
        },
        {
          "internalType": "enum AnnotationRegistry.FlagType",
          "name": "_flagType",
          "type": "uint8"
        },
        {
          "internalType": "string",
          "name": "_ipfsHash",
          "type": "string"
        },
        {
          "internalType": "uint256",
          "name": "_confidence",
          "type": "uint256"
        }
      ],
      "name": "addAnnotation",
      "outputs": [],
      "stateMutability": "nonpayable",
      "type": "function"
    },
    {
      "inputs": [
        {
          "internalType": "bytes32",
          "name": "_articleHash",
          "type": "bytes32"
        }
      ],
      "name": "getAnnotations",
      "outputs": [
        {
          "components": [
            {
              "internalType": "bytes32",
              "name": "articleHash",
              "type": "bytes32"
            },
            {
              "internalType": "address",
              "name": "factChecker",
              "type": "address"
            },
            {
              "internalType": "enum AnnotationRegistry.FlagType",
              "name": "flagType",
              "type": "uint8"
            },
            {
              "internalType": "string",
              "name": "ipfsHash",
              "type": "string"
            },
            {
              "internalType": "uint256",
              "name": "timestamp",
              "type": "uint256"
            },
            {
              "internalType": "uint256",
              "name": "confidence",
              "type": "uint256"
            }
          ],
          "internalType": "struct AnnotationRegistry.Annotation[]",
          "name": "",
          "type": "tuple[]"
        }
      ],
      "stateMutability": "view",
      "type": "function",
      "constant": true
    },
    {
      "inputs": [
        {
          "internalType": "bytes32",
          "name": "_articleHash",
          "type": "bytes32"
        }
      ],
      "name": "getAnnotationCount",
      "outputs": [
        {
          "internalType": "uint256",
          "name": "",
          "type": "uint256"
        }
      ],
      "stateMutability": "view",
      "type": "function",
      "constant": true
    },
    {
      "inputs": [
        {
          "internalType": "bytes32",
          "name": "_articleHash",
          "type": "bytes32"
        }
      ],
      "name": "hasBeenFlagged",
      "outputs": [
        {
          "internalType": "bool",
          "name": "",
          "type": "bool"
        }
      ],
      "stateMutability": "view",
      "type": "function",
      "constant": true
    },
    {
      "inputs": [
        {
          "internalType": "bytes32",
          "name": "_articleHash",
          "type": "bytes32"
        }
      ],
      "name": "getConsensus",
      "outputs": [
        {
          "internalType": "enum AnnotationRegistry.FlagType",
          "name": "",
          "type": "uint8"
        },
        {
          "internalType": "uint256",
          "name": "",
          "type": "uint256"
        }
      ],
      "stateMutability": "view",
      "type": "function",
      "constant": true
    }
  ],
  "bytecode": "0x608060405234801561000f575f80fd5b503360025f6101000a81548173ffffffffffffffffffffffffffffffffffffffff021916908373ffffffffffffffffffffffffffffffffffffffff1602179055506119238061005d5f395ff3fe608060405234801561000f575f80fd5b506004361061009c575f3560e01c806359daedcf1161006457806359daedcf146101685780638a87e785146101845780638c75916b146101b5578063e183ce10146101ea578063f851a4401461021a5761009c565b8063245b1bd6146100a05780632aca188a146100bc57806349deba23146100d857806354e3a8d314610108578063586f3f3114610138575b5f80fd5b6100ba60048036038101906100b59190610ec6565b610238565b005b6100d660048036038101906100d19190610fa0565b610496565b005b6100f260048036038101906100ed9190610fa0565b6105bf565b6040516100ff9190610fe5565b60405180910390f35b610122600480360381019061011d9190610ffe565b6105dc565b60405161012f9190611284565b60405180910390f35b610152600480360381019061014d9190610ffe565b610785565b60405161015f9190610fe5565b60405180910390f35b610182600480360381019061017d9190610fa0565b6107a3565b005b61019e60048036038101906101999190610ffe565b6108cc565b6040516101ac9291906112c2565b60405180910390f35b6101cf60048036038101906101ca91906112e9565b610b8a565b6040516101e19695949392919061138d565b60405180910390f35b61020460048036038101906101ff9190610ffe565b610c8d565b60405161021191906113f3565b60405180910390f35b610222610ca9565b60405161022f919061140c565b60405180910390f35b60015f3373ffffffffffffffffffffffffffffffffffffffff1673ffffffffffffffffffffffffffffffffffffffff1681526020019081526020015f205f9054906101000a900460ff166102c1576040517f08c379a00000000000000000000000000000000000000000000000000000000081526004016102b890611495565b60405180910390fd5b6064811115610305576040517f08c379a00000000000000000000000000000000000000000000000000000000081526004016102fc906114fd565b60405180910390fd5b5f6040518060c001604052808681526020013373ffffffffffffffffffffffffffffffffffffffff16815260200185600481111561034657610345611070565b5b81526020018481526020014281526020018381525090505f808681526020019081526020015f2081908060018154018082558091505060019003905f5260205f2090600502015f909190919091505f820151815f01556020820151816001015f6101000a81548173ffffffffffffffffffffffffffffffffffffffff021916908373ffffffffffffffffffffffffffffffffffffffff16021790555060408201518160010160146101000a81548160ff0219169083600481111561040d5761040c611070565b5b021790555060608201518160020190816104279190611715565b506080820151816003015560a0820151816004015550503373ffffffffffffffffffffffffffffffffffffffff16857f44f1a97ff2b3dcdfaea77e12e1aaf922e2e9e80944a9a067a6135ffee5441c0086856040516104879291906112c2565b60405180910390a35050505050565b60025f9054906101000a900473ffffffffffffffffffffffffffffffffffffffff1673ffffffffffffffffffffffffffffffffffffffff163373ffffffffffffffffffffffffffffffffffffffff1614610525576040517f08c379a000000000000000000000000000000000000000000000000000000000815260040161051c9061182e565b60405180910390fd5b5f60015f8373ffffffffffffffffffffffffffffffffffffffff1673ffffffffffffffffffffffffffffffffffffffff1681526020019081526020015f205f6101000a81548160ff0219169083151502179055508073ffffffffffffffffffffffffffffffffffffffff167ffba16df0eb419ad431bb294e76d1836e189d934cc76cd4d595aa11c28eb054bc60405160405180910390a250565b6001602052805f5260405f205f915054906101000a900460ff1681565b60605f808381526020019081526020015f20805480602002602001604051908101604052809291908181526020015f905b8282101561077a578382905f5260205f2090600502016040518060c00160405290815f8201548152602001600182015f9054906101000a900473ffffffffffffffffffffffffffffffffffffffff1673ffffffffffffffffffffffffffffffffffffffff1673ffffffffffffffffffffffffffffffffffffffff1681526020016001820160149054906101000a900460ff1660048111156106b1576106b0611070565b5b60048111156106c3576106c2611070565b5b81526020016002820180546106d790611548565b80601f016020809104026020016040519081016040528092919081815260200182805461070390611548565b801561074e5780601f106107255761010080835404028352916020019161074e565b820191905f5260205f20905b81548152906001019060200180831161073157829003601f168201915b50505050508152602001600382015481526020016004820154815250508152602001906001019061060d565b505050509050919050565b5f805f808481526020019081526020015f2080549050119050919050565b60025f9054906101000a900473ffffffffffffffffffffffffffffffffffffffff1673ffffffffffffffffffffffffffffffffffffffff163373ffffffffffffffffffffffffffffffffffffffff1614610832576040517f08c379a00000000000000000000000000000000000000000000000000000000081526004016108299061182e565b60405180910390fd5b6001805f8373ffffffffffffffffffffffffffffffffffffffff1673ffffffffffffffffffffffffffffffffffffffff1681526020019081526020015f205f6101000a81548160ff0219169083151502179055508073ffffffffffffffffffffffffffffffffffffffff167f852327bb5f83ee900589358d8b1d8e383362d7ddad8288bf782b4f0de296d19d60405160405180910390a250565b5f805f805f8581526020019081526020015f20805480602002602001604051908101604052809291908181526020015f905b82821015610a6b578382905f5260205f2090600502016040518060c00160405290815f8201548152602001600182015f9054906101000a900473ffffffffffffffffffffffffffffffffffffffff1673ffffffffffffffffffffffffffffffffffffffff1673ffffffffffffffffffffffffffffffffffffffff1681526020016001820160149054906101000a900460ff1660048111156109a2576109a1611070565b5b60048111156109b4576109b3611070565b5b81526020016002820180546109c890611548565b80601f01602080910402602001604051908101604052809291908181526020018280546109f490611548565b8015610a3f5780601f10610a1657610100808354040283529160200191610a3f565b820191905f5260205f20905b815481529060010190602001808311610a2257829003601f168201915b5050505050815260200160038201548152602001600482015481525050815260200190600101906108fe565b5050505090505f815103610a865760035f9250925050610b85565b610a8e610cce565b5f5b8251811015610b055781838281518110610aad57610aac61184c565b5b6020026020010151604001516004811115610acb57610aca611070565b5b60058110610adc57610adb61184c565b5b602002018051809190610aee906118a6565b815250508080610afd906118a6565b915050610a90565b505f80600390505f5b6005811015610b795782848260058110610b2b57610b2a61184c565b5b60200201511115610b6657838160058110610b4957610b4861184c565b5b60200201519250806004811115610b6357610b62611070565b5b91505b8080610b71906118a6565b915050610b0e565b50808295509550505050505b915091565b5f602052815f5260405f208181548110610ba2575f80fd5b905f5260205f2090600502015f9150915050805f015490806001015f9054906101000a900473ffffffffffffffffffffffffffffffffffffffff16908060010160149054906101000a900460ff1690806002018054610c0090611548565b80601f0160208091040260200160405190810160405280929190818152602001828054610c2c90611548565b8015610c775780601f10610c4e57610100808354040283529160200191610c77565b820191905f5260205f20905b815481529060010190602001808311610c5a57829003601f168201915b5050505050908060030154908060040154905086565b5f805f8381526020019081526020015f20805490509050919050565b60025f9054906101000a900473ffffffffffffffffffffffffffffffffffffffff1681565b6040518060a00160405280600590602082028036833780820191505090505090565b5f604051905090565b5f80fd5b5f80fd5b5f819050919050565b610d1381610d01565b8114610d1d575f80fd5b50565b5f81359050610d2e81610d0a565b92915050565b60058110610d40575f80fd5b50565b5f81359050610d5181610d34565b92915050565b5f80fd5b5f80fd5b5f601f19601f8301169050919050565b7f4e487b71000000000000000000000000000000000000000000000000000000005f52604160045260245ffd5b610da582610d5f565b810181811067ffffffffffffffff82111715610dc457610dc3610d6f565b5b80604052505050565b5f610dd6610cf0565b9050610de28282610d9c565b919050565b5f67ffffffffffffffff821115610e0157610e00610d6f565b5b610e0a82610d5f565b9050602081019050919050565b828183375f83830152505050565b5f610e37610e3284610de7565b610dcd565b905082815260208101848484011115610e5357610e52610d5b565b5b610e5e848285610e17565b509392505050565b5f82601f830112610e7a57610e79610d57565b5b8135610e8a848260208601610e25565b91505092915050565b5f819050919050565b610ea581610e93565b8114610eaf575f80fd5b50565b5f81359050610ec081610e9c565b92915050565b5f805f8060808587031215610ede57610edd610cf9565b5b5f610eeb87828801610d20565b9450506020610efc87828801610d43565b935050604085013567ffffffffffffffff811115610f1d57610f1c610cfd565b5b610f2987828801610e66565b9250506060610f3a87828801610eb2565b91505092959194509250565b5f73ffffffffffffffffffffffffffffffffffffffff82169050919050565b5f610f6f82610f46565b9050919050565b610f7f81610f65565b8114610f89575f80fd5b50565b5f81359050610f9a81610f76565b92915050565b5f60208284031215610fb557610fb4610cf9565b5b5f610fc284828501610f8c565b91505092915050565b5f8115159050919050565b610fdf81610fcb565b82525050565b5f602082019050610ff85f830184610fd6565b92915050565b5f6020828403121561101357611012610cf9565b5b5f61102084828501610d20565b91505092915050565b5f81519050919050565b5f82825260208201905092915050565b5f819050602082019050919050565b61105b81610d01565b82525050565b61106a81610f65565b82525050565b7f4e487b71000000000000000000000000000000000000000000000000000000005f52602160045260245ffd5b600581106110ae576110ad611070565b5b50565b5f8190506110be8261109d565b919050565b5f6110cd826110b1565b9050919050565b6110dd816110c3565b82525050565b5f81519050919050565b5f82825260208201905092915050565b5f5b8381101561111a5780820151818401526020810190506110ff565b5f8484015250505050565b5f61112f826110e3565b61113981856110ed565b93506111498185602086016110fd565b61115281610d5f565b840191505092915050565b61116681610e93565b82525050565b5f60c083015f8301516111815f860182611052565b5060208301516111946020860182611061565b5060408301516111a760408601826110d4565b50606083015184820360608601526111bf8282611125565b91505060808301516111d4608086018261115d565b5060a08301516111e760a086018261115d565b508091505092915050565b5f6111fd838361116c565b905092915050565b5f602082019050919050565b5f61121b82611029565b6112258185611033565b93508360208202850161123785611043565b805f5b85811015611272578484038952815161125385826111f2565b945061125e83611205565b925060208a0199505060018101905061123a565b50829750879550505050505092915050565b5f6020820190508181035f83015261129c8184611211565b905092915050565b6112ad816110c3565b82525050565b6112bc81610e93565b82525050565b5f6040820190506112d55f8301856112a4565b6112e260208301846112b3565b9392505050565b5f80604083850312156112ff576112fe610cf9565b5b5f61130c85828601610d20565b925050602061131d85828601610eb2565b9150509250929050565b61133081610d01565b82525050565b61133f81610f65565b82525050565b5f82825260208201905092915050565b5f61135f826110e3565b6113698185611345565b93506113798185602086016110fd565b61138281610d5f565b840191505092915050565b5f60c0820190506113a05f830189611327565b6113ad6020830188611336565b6113ba60408301876112a4565b81810360608301526113cc8186611355565b90506113db60808301856112b3565b6113e860a08301846112b3565b979650505050505050565b5f6020820190506114065f8301846112b3565b92915050565b5f60208201905061141f5f830184611336565b92915050565b7f596f75206d757374206265206120766572696669656420666163742d636865635f8201527f6b65720000000000000000000000000000000000000000000000000000000000602082015250565b5f61147f602383611345565b915061148a82611425565b604082019050919050565b5f6020820190508181035f8301526114ac81611473565b9050919050565b7f436f6e666964656e6365206d75737420626520302d31303000000000000000005f82015250565b5f6114e7601883611345565b91506114f2826114b3565b602082019050919050565b5f6020820190508181035f830152611514816114db565b9050919050565b7f4e487b71000000000000000000000000000000000000000000000000000000005f52602260045260245ffd5b5f600282049050600182168061155f57607f821691505b6020821081036115725761157161151b565b5b50919050565b5f819050815f5260205f209050919050565b5f6020601f8301049050919050565b5f82821b905092915050565b5f600883026115d47fffffffffffffffffffffffffffffffffffffffffffffffffffffffffffffffff82611599565b6115de8683611599565b95508019841693508086168417925050509392505050565b5f819050919050565b5f61161961161461160f84610e93565b6115f6565b610e93565b9050919050565b5f819050919050565b611632836115ff565b61164661163e82611620565b8484546115a5565b825550505050565b5f90565b61165a61164e565b611665818484611629565b505050565b5b818110156116885761167d5f82611652565b60018101905061166b565b5050565b601f8211156116cd5761169e81611578565b6116a78461158a565b810160208510156116b6578190505b6116ca6116c28561158a565b83018261166a565b50505b505050565b5f82821c905092915050565b5f6116ed5f19846008026116d2565b1980831691505092915050565b5f61170583836116de565b9150826002028217905092915050565b61171e826110e3565b67ffffffffffffffff81111561173757611736610d6f565b5b6117418254611548565b61174c82828561168c565b5f60209050601f83116001811461177d575f841561176b578287015190505b61177585826116fa565b8655506117dc565b601f19841661178b86611578565b5f5b828110156117b25784890151825560018201915060208501945060208101905061178d565b868310156117cf57848901516117cb601f8916826116de565b8355505b6001600288020188555050505b505050505050565b7f4f6e6c792061646d696e000000000000000000000000000000000000000000005f82015250565b5f611818600a83611345565b9150611823826117e4565b602082019050919050565b5f6020820190508181035f8301526118458161180c565b9050919050565b7f4e487b71000000000000000000000000000000000000000000000000000000005f52603260045260245ffd5b7f4e487b71000000000000000000000000000000000000000000000000000000005f52601160045260245ffd5b5f6118b082610e93565b91507fffffffffffffffffffffffffffffffffffffffffffffffffffffffffffffffff82036118e2576118e1611879565b5b60018201905091905056fea2646970667358221220cf8daf4ba37f8a906ba77e6805d06b2e5f4e1e4e9af9f762b83f1cc08cbcd85c64736f6c63430008150033",
  "immutableReferences": {},
  "source": "// SPDX-License-Identifier: MIT\npragma solidity ^0.8.0;\n\n/**\n * ANNOTATION REGISTRY CONTRACT\n * \n * Think: Comment section that can't be deleted\n * \n * What it does:\n * - Fact-checkers can flag articles\n * - Add corrections/notes\n * - All permanently stored\n * - Can't be removed or edited\n * \n * Why this matters:\n * - Transparent fact-checking\n * - Can't hide corrections\n * - History is preserved\n */\n\ncontract AnnotationRegistry {\n    \n    // ============================================\n    // DATA STRUCTURES\n    // ============================================\n    \n    /**\n     * Flag types for annotations\n     */\n    enum FlagType {\n        MISLEADING,  // 0 - Partially false\n        FALSE,       // 1 - Completely false\n        SATIRE,      // 2 - Joke/satire\n        UNVERIFIED,  // 3 - Can't verify\n        CORRECT      // 4 - Actually correct (dispute fake label)\n    }\n    \n    /**\n     * Annotation struct\n     * Think: One correction/flag on an article\n     */\n    struct Annotation {\n        bytes32 articleHash;      // Which article?\n        address factChecker;      // Who flagged it?\n        FlagType flagType;        // What's wrong?\n        string ipfsHash;          // Link to detailed explanation\n        uint256 timestamp;        // When flagged?\n        uint256 confidence;       // How sure? (0-100)\n    }\n    \n    // Mapping: articleHash  array of Annotations\n    // One article can have multiple fact-checks\n    mapping(bytes32 => Annotation[]) public articleAnnotations;\n    \n    // Who is a verified fact-checker?\n    mapping(address => bool) public verifiedFactCheckers;\n    \n    // Admin (can verify fact-checkers)\n    address public admin;\n    \n    // ============================================\n    // EVENTS\n    // ============================================\n    \n    event AnnotationAdded(\n        bytes32 indexed articleHash,\n        address indexed factChecker,\n        FlagType flagType,\n        uint256 confidence\n    );\n    \n    event FactCheckerVerified(address indexed factChecker);\n    event FactCheckerRemoved(address indexed factChecker);\n    \n    // ============================================\n    // MODIFIERS\n    // ============================================\n    \n    modifier onlyAdmin() {\n        require(msg.sender == admin, \"Only admin\");\n        _;\n    }\n    \n    modifier onlyVerifiedFactChecker() {\n        require(\n            verifiedFactCheckers[msg.sender],\n            \"You must be a verified fact-checker\"\n        );\n        _;\n    }\n    \n    // ============================================\n    // CONSTRUCTOR\n    // ============================================\n    \n    constructor() {\n        admin = msg.sender;\n    }\n    \n    // ============================================\n    // ADMIN FUNCTIONS\n    // ============================================\n    \n    /**\n     * Verify a fact-checker\n     * \n     * @param _factChecker Address to verify\n     * \n     * Only admin can verify fact-checkers\n     * Think: Giving someone \"fact-checker badge\"\n     */\n    function verifyFactChecker(address _factChecker) \n        public \n        onlyAdmin \n    {\n        verifiedFactCheckers[_factChecker] = true;\n        emit FactCheckerVerified(_factChecker);\n    }\n    \n    /**\n     * Remove fact-checker verification\n     */\n    function removeFactChecker(address _factChecker) \n        public \n        onlyAdmin \n    {\n        verifiedFactCheckers[_factChecker] = false;\n        emit FactCheckerRemoved(_factChecker);\n    }\n    \n    // ============================================\n    // FACT-CHECKER FUNCTIONS\n    // ============================================\n    \n    /**\n     * Add an annotation to an article\n     * \n     * Flow:\n     * 1. Fact-checker analyzes article\n     * 2. Writes detailed correction (stored in IPFS)\n     * 3. Calls this function with flag type + IPFS link\n     * 4. Annotation permanently stored on blockchain\n     * \n     * @param _articleHash Hash of article being flagged\n     * @param _flagType Type of issue (MISLEADING/FALSE/etc)\n     * @param _ipfsHash Link to detailed correction (IPFS)\n     * @param _confidence How confident? (0-100)\n     * \n     * Why IPFS?\n     * - Blockchain storage is expensive\n     * - IPFS = decentralized file storage\n     * - Store detailed correction on IPFS\n     * - Store only IPFS link on blockchain\n     * \n     * Example:\n     * 1. Write correction: \"This is false because...\"\n     * 2. Upload to IPFS  get hash: \"Qm...\"\n     * 3. Call: addAnnotation(articleHash, FALSE, \"Qm...\", 95)\n     */\n    function addAnnotation(\n        bytes32 _articleHash,\n        FlagType _flagType,\n        string memory _ipfsHash,\n        uint256 _confidence\n    ) \n        public \n        onlyVerifiedFactChecker \n    {\n        require(_confidence <= 100, \"Confidence must be 0-100\");\n        \n        // Create annotation\n        Annotation memory newAnnotation = Annotation({\n            articleHash: _articleHash,\n            factChecker: msg.sender,\n            flagType: _flagType,\n            ipfsHash: _ipfsHash,\n            timestamp: block.timestamp,\n            confidence: _confidence\n        });\n        \n        // Add to array for this article\n        articleAnnotations[_articleHash].push(newAnnotation);\n        \n        // Emit event\n        emit AnnotationAdded(\n            _articleHash,\n            msg.sender,\n            _flagType,\n            _confidence\n        );\n    }\n    \n    // ============================================\n    // PUBLIC READ FUNCTIONS\n    // ============================================\n    \n    /**\n     * Get all annotations for an article\n     * \n     * @param _articleHash Article hash\n     * @return Annotation[] Array of all annotations\n     * \n     * Anyone can call this - transparency!\n     * \n     * Example:\n     * annotations = contract.getAnnotations(articleHash)\n     * for ann in annotations:\n     *     print(f\"{ann.factChecker} flagged as {ann.flagType}\")\n     *     print(f\"Details: ipfs.io/ipfs/{ann.ipfsHash}\")\n     */\n    function getAnnotations(bytes32 _articleHash) \n        public \n        view \n        returns (Annotation[] memory) \n    {\n        return articleAnnotations[_articleHash];\n    }\n    \n    /**\n     * Get number of annotations for article\n     */\n    function getAnnotationCount(bytes32 _articleHash) \n        public \n        view \n        returns (uint256) \n    {\n        return articleAnnotations[_articleHash].length;\n    }\n    \n    /**\n     * Check if article has been flagged\n     * \n     * @param _articleHash Article hash\n     * @return bool True if has any annotations\n     */\n    function hasBeenFlagged(bytes32 _articleHash) \n        public \n        view \n        returns (bool) \n    {\n        return articleAnnotations[_articleHash].length > 0;\n    }\n    \n    /**\n     * Get consensus on article\n     * Returns most common flag type among fact-checkers\n     * \n     * @param _articleHash Article hash\n     * @return FlagType Most common flag\n     * @return uint256 Count of that flag\n     */\n    function getConsensus(bytes32 _articleHash) \n        public \n        view \n        returns (FlagType, uint256) \n    {\n        Annotation[] memory annotations = articleAnnotations[_articleHash];\n        \n        if (annotations.length == 0) {\n            return (FlagType.UNVERIFIED, 0);\n        }\n        \n        // Count each flag type\n        uint256[5] memory counts;\n        for (uint i = 0; i < annotations.length; i++) {\n            counts[uint(annotations[i].flagType)]++;\n        }\n        \n        // Find most common\n        uint256 maxCount = 0;\n        FlagType consensus = FlagType.UNVERIFIED;\n        \n        for (uint i = 0; i < 5; i++) {\n            if (counts[i] > maxCount) {\n                maxCount = counts[i];\n                consensus = FlagType(i);\n            }\n        }\n        \n        return (consensus, maxCount);\n    }\n}\n",
  "sourcePath": "/Users/Megha/finalyearproj/Hindi-Fake-News_detection/blockchain/contracts/AnnotationRegistry.sol",
  "compiler": {
    "name": "solc",
    "version": "0.8.21+commit.d9974bed.Emscripten.clang"
  },
  "schemaVersion": "3.4.16",
  "updatedAt": "2026-02-08T23:30:20.478Z",
  "networkType": "ethereum",
  "devdoc": {
    "kind": "dev",
    "methods": {
      "addAnnotation(bytes32,uint8,string,uint256)": {
        "params": {
          "_articleHash": "Hash of article being flagged",
          "_confidence": "How confident? (0-100)  Why IPFS? - Blockchain storage is expensive - IPFS = decentralized file storage - Store detailed correction on IPFS - Store only IPFS link on blockchain  Example: 1. Write correction: \"This is false because...\" 2. Upload to IPFS  get hash: \"Qm...\" 3. Call: addAnnotation(articleHash, FALSE, \"Qm...\", 95)",
          "_flagType": "Type of issue (MISLEADING/FALSE/etc)",
          "_ipfsHash": "Link to detailed correction (IPFS)"
        }
      },
      "getAnnotations(bytes32)": {
        "params": {
          "_articleHash": "Article hash"
        },
        "returns": {
          "_0": "Annotation[] Array of all annotations  Anyone can call this - transparency!  Example: annotations = contract.getAnnotations(articleHash) for ann in annotations:     print(f\"{ann.factChecker} flagged as {ann.flagType}\")     print(f\"Details: ipfs.io/ipfs/{ann.ipfsHash}\")"
        }
      },
      "getConsensus(bytes32)": {
        "params": {
          "_articleHash": "Article hash"
        },
        "returns": {
          "_0": "FlagType Most common flag",
          "_1": "uint256 Count of that flag"
        }
      },
      "hasBeenFlagged(bytes32)": {
        "params": {
          "_articleHash": "Article hash"
        },
        "returns": {
          "_0": "bool True if has any annotations"
        }
      },
      "verifyFactChecker(address)": {
        "params": {
          "_factChecker": "Address to verify  Only admin can verify fact-checkers Think: Giving someone \"fact-checker badge\""
        }
      }
    },
    "version": 1
  },
  "userdoc": {
    "kind": "user",
    "methods": {
      "addAnnotation(bytes32,uint8,string,uint256)": {
        "notice": "Add an annotation to an article  Flow: 1. Fact-checker analyzes article 2. Writes detailed correction (stored in IPFS) 3. Calls this function with flag type + IPFS link 4. Annotation permanently stored on blockchain "
      },
      "getAnnotationCount(bytes32)": {
        "notice": "Get number of annotations for article"
      },
      "getAnnotations(bytes32)": {
        "notice": "Get all annotations for an article "
      },
      "getConsensus(bytes32)": {
        "notice": "Get consensus on article Returns most common flag type among fact-checkers "
      },
      "hasBeenFlagged(bytes32)": {
        "notice": "Check if article has been flagged "
      },
      "removeFactChecker(address)": {
        "notice": "Remove fact-checker verification"
      },
      "verifyFactChecker(address)": {
        "notice": "Verify a fact-checker "
      }
    },
    "notice": "ANNOTATION REGISTRY CONTRACT  Think: Comment section that can't be deleted  What it does: - Fact-checkers can flag articles - Add corrections/notes - All permanently stored - Can't be removed or edited  Why this matters: - Transparent fact-checking - Can't hide corrections - History is preserved",
    "version": 1
  }
}