{
  "contractName": "ArticleRegistry",
  "abi": [
    {
      "inputs": [
        {
          "internalType": "address",
          "name": "_publisherRegistry",
          "type": "address"
        }
      ],
      "stateMutability": "nonpayable",
      "type": "constructor"
    },
    {
      "anonymous": false,
      "inputs": [
        {
          "indexed": true,
          "internalType": "bytes32",
          "name": "contentHash",
          "type": "bytes32"
        },
        {
          "indexed": true,
          "internalType": "address",
          "name": "publisher",
          "type": "address"
        },
        {
          "indexed": false,
          "internalType": "string",
          "name": "language",
          "type": "string"
        },
        {
          "indexed": false,
          "internalType": "uint256",
          "name": "timestamp",
          "type": "uint256"
        }
      ],
      "name": "ArticleRegistered",
      "type": "event"
    },
    {
      "inputs": [
        {
          "internalType": "uint256",
          "name": "",
          "type": "uint256"
        }
      ],
      "name": "articleHashes",
      "outputs": [
        {
          "internalType": "bytes32",
          "name": "",
          "type": "bytes32"
        }
      ],
      "stateMutability": "view",
      "type": "function",
      "constant": true
    },
    {
      "inputs": [
        {
          "internalType": "bytes32",
          "name": "",
          "type": "bytes32"
        }
      ],
      "name": "articles",
      "outputs": [
        {
          "internalType": "bytes32",
          "name": "contentHash",
          "type": "bytes32"
        },
        {
          "internalType": "address",
          "name": "publisher",
          "type": "address"
        },
        {
          "internalType": "uint256",
          "name": "timestamp",
          "type": "uint256"
        },
        {
          "internalType": "string",
          "name": "language",
          "type": "string"
        },
        {
          "internalType": "bool",
          "name": "exists",
          "type": "bool"
        }
      ],
      "stateMutability": "view",
      "type": "function",
      "constant": true
    },
    {
      "inputs": [],
      "name": "publisherRegistry",
      "outputs": [
        {
          "internalType": "contract PublisherRegistry",
          "name": "",
          "type": "address"
        }
      ],
      "stateMutability": "view",
      "type": "function",
      "constant": true
    },
    {
      "inputs": [
        {
          "internalType": "bytes32",
          "name": "_contentHash",
          "type": "bytes32"
        },
        {
          "internalType": "string",
          "name": "_language",
          "type": "string"
        }
      ],
      "name": "registerArticle",
      "outputs": [],
      "stateMutability": "nonpayable",
      "type": "function"
    },
    {
      "inputs": [
        {
          "internalType": "bytes32",
          "name": "_contentHash",
          "type": "bytes32"
        }
      ],
      "name": "verifyArticle",
      "outputs": [
        {
          "internalType": "bool",
          "name": "exists",
          "type": "bool"
        },
        {
          "internalType": "address",
          "name": "publisher",
          "type": "address"
        },
        {
          "internalType": "uint256",
          "name": "timestamp",
          "type": "uint256"
        }
      ],
      "stateMutability": "view",
      "type": "function",
      "constant": true
    },
    {
      "inputs": [
        {
          "internalType": "bytes32",
          "name": "_contentHash",
          "type": "bytes32"
        }
      ],
      "name": "getArticle",
      "outputs": [
        {
          "components": [
            {
              "internalType": "bytes32",
              "name": "contentHash",
              "type": "bytes32"
            },
            {
              "internalType": "address",
              "name": "publisher",
              "type": "address"
            },
            {
              "internalType": "uint256",
              "name": "timestamp",
              "type": "uint256"
            },
            {
              "internalType": "string",
              "name": "language",
              "type": "string"
            },
            {
              "internalType": "bool",
              "name": "exists",
              "type": "bool"
            }
          ],
          "internalType": "struct ArticleRegistry.Article",
          "name": "",
          "type": "tuple"
        }
      ],
      "stateMutability": "view",
      "type": "function",
      "constant": true
    },
    {
      "inputs": [],
      "name": "getArticleCount",
      "outputs": [
        {
          "internalType": "uint256",
          "name": "",
          "type": "uint256"
        }
      ],
      "stateMutability": "view",
      "type": "function",
      "constant": true
    },
    {
      "inputs": [
        {
          "internalType": "bytes32",
          "name": "_contentHash",
          "type": "bytes32"
        },
        {
          "internalType": "address",
          "name": "_publisher",
          "type": "address"
        }
      ],
      "name": "wasPublishedBy",
      "outputs": [
        {
          "internalType": "bool",
          "name": "",
          "type": "bool"
        }
      ],
      "stateMutability": "view",
      "type": "function",
      "constant": true
    }
  ],
  "bytecode": "0x608060405234801562000010575f80fd5b5060405162001542380380620015428339818101604052810190620000369190620000e2565b8060025f6101000a81548173ffffffffffffffffffffffffffffffffffffffff021916908373ffffffffffffffffffffffffffffffffffffffff1602179055505062000112565b5f80fd5b5f73ffffffffffffffffffffffffffffffffffffffff82169050919050565b5f620000ac8262000081565b9050919050565b620000be81620000a0565b8114620000c9575f80fd5b50565b5f81519050620000dc81620000b3565b92915050565b5f60208284031215620000fa57620000f96200007d565b5b5f6200010984828501620000cc565b91505092915050565b61142280620001205f395ff3fe608060405234801561000f575f80fd5b5060043610610086575f3560e01c806351da8a4f1161005957806351da8a4f14610126578063a135efdc1461015a578063bbf121861461018a578063e899d5ff146101ba57610086565b8063177eb9421461008a5780631ba395dd146100a65780632894ceda146100d65780633c9f3d04146100f4575b5f80fd5b6100a4600480360381019061009f9190610ab9565b6101d8565b005b6100c060048036038101906100bb9190610b13565b61046b565b6040516100cd9190610cab565b60405180910390f35b6100de610606565b6040516100eb9190610d26565b60405180910390f35b61010e60048036038101906101099190610b13565b61062b565b60405161011d93929190610d6c565b60405180910390f35b610140600480360381019061013b9190610b13565b61077b565b604051610151959493929190610df8565b60405180910390f35b610174600480360381019061016f9190610e7a565b61085d565b6040516101819190610eb8565b60405180910390f35b6101a4600480360381019061019f9190610efb565b6108c7565b6040516101b19190610f26565b60405180910390f35b6101c26108e7565b6040516101cf9190610f3f565b60405180910390f35b60025f9054906101000a900473ffffffffffffffffffffffffffffffffffffffff1673ffffffffffffffffffffffffffffffffffffffff1663b9209e33336040518263ffffffff1660e01b81526004016102329190610f58565b602060405180830381865afa15801561024d573d5f803e3d5ffd5b505050506040513d601f19601f820116820180604052508101906102719190610f9b565b6102b0576040517f08c379a00000000000000000000000000000000000000000000000000000000081526004016102a790611010565b60405180910390fd5b5f808381526020019081526020015f206004015f9054906101000a900460ff1615610310576040517f08c379a000000000000000000000000000000000000000000000000000000000815260040161030790611078565b60405180910390fd5b6040518060a001604052808381526020013373ffffffffffffffffffffffffffffffffffffffff168152602001428152602001828152602001600115158152505f808481526020019081526020015f205f820151815f01556020820151816001015f6101000a81548173ffffffffffffffffffffffffffffffffffffffff021916908373ffffffffffffffffffffffffffffffffffffffff1602179055506040820151816002015560608201518160030190816103cd9190611287565b506080820151816004015f6101000a81548160ff021916908315150217905550905050600182908060018154018082558091505060019003905f5260205f20015f90919091909150553373ffffffffffffffffffffffffffffffffffffffff16827f7df79efd94ca1243e757705ed593f4d76841812997577e83b7b255bff792fffb834260405161045f929190611356565b60405180910390a35050565b6104736108f3565b5f808381526020019081526020015f206004015f9054906101000a900460ff166104d2576040517f08c379a00000000000000000000000000000000000000000000000000000000081526004016104c9906113ce565b60405180910390fd5b5f808381526020019081526020015f206040518060a00160405290815f8201548152602001600182015f9054906101000a900473ffffffffffffffffffffffffffffffffffffffff1673ffffffffffffffffffffffffffffffffffffffff1673ffffffffffffffffffffffffffffffffffffffff16815260200160028201548152602001600382018054610565906110c3565b80601f0160208091040260200160405190810160405280929190818152602001828054610591906110c3565b80156105dc5780601f106105b3576101008083540402835291602001916105dc565b820191905f5260205f20905b8154815290600101906020018083116105bf57829003601f168201915b50505050508152602001600482015f9054906101000a900460ff1615151515815250509050919050565b60025f9054906101000a900473ffffffffffffffffffffffffffffffffffffffff1681565b5f805f805f808681526020019081526020015f206040518060a00160405290815f8201548152602001600182015f9054906101000a900473ffffffffffffffffffffffffffffffffffffffff1673ffffffffffffffffffffffffffffffffffffffff1673ffffffffffffffffffffffffffffffffffffffff168152602001600282015481526020016003820180546106c2906110c3565b80601f01602080910402602001604051908101604052809291908181526020018280546106ee906110c3565b80156107395780601f1061071057610100808354040283529160200191610739565b820191905f5260205f20905b81548152906001019060200180831161071c57829003601f168201915b50505050508152602001600482015f9054906101000a900460ff1615151515815250509050806080015181602001518260400151935093509350509193909250565b5f602052805f5260405f205f91509050805f015490806001015f9054906101000a900473ffffffffffffffffffffffffffffffffffffffff16908060020154908060030180546107ca906110c3565b80601f01602080910402602001604051908101604052809291908181526020018280546107f6906110c3565b80156108415780601f1061081857610100808354040283529160200191610841565b820191905f5260205f20905b81548152906001019060200180831161082457829003601f168201915b505050505090806004015f9054906101000a900460ff16905085565b5f8173ffffffffffffffffffffffffffffffffffffffff165f808581526020019081526020015f206001015f9054906101000a900473ffffffffffffffffffffffffffffffffffffffff1673ffffffffffffffffffffffffffffffffffffffff1614905092915050565b600181815481106108d6575f80fd5b905f5260205f20015f915090505481565b5f600180549050905090565b6040518060a001604052805f80191681526020015f73ffffffffffffffffffffffffffffffffffffffff1681526020015f8152602001606081526020015f151581525090565b5f604051905090565b5f80fd5b5f80fd5b5f819050919050565b61095c8161094a565b8114610966575f80fd5b50565b5f8135905061097781610953565b92915050565b5f80fd5b5f80fd5b5f601f19601f8301169050919050565b7f4e487b71000000000000000000000000000000000000000000000000000000005f52604160045260245ffd5b6109cb82610985565b810181811067ffffffffffffffff821117156109ea576109e9610995565b5b80604052505050565b5f6109fc610939565b9050610a0882826109c2565b919050565b5f67ffffffffffffffff821115610a2757610a26610995565b5b610a3082610985565b9050602081019050919050565b828183375f83830152505050565b5f610a5d610a5884610a0d565b6109f3565b905082815260208101848484011115610a7957610a78610981565b5b610a84848285610a3d565b509392505050565b5f82601f830112610aa057610a9f61097d565b5b8135610ab0848260208601610a4b565b91505092915050565b5f8060408385031215610acf57610ace610942565b5b5f610adc85828601610969565b925050602083013567ffffffffffffffff811115610afd57610afc610946565b5b610b0985828601610a8c565b9150509250929050565b5f60208284031215610b2857610b27610942565b5b5f610b3584828501610969565b91505092915050565b610b478161094a565b82525050565b5f73ffffffffffffffffffffffffffffffffffffffff82169050919050565b5f610b7682610b4d565b9050919050565b610b8681610b6c565b82525050565b5f819050919050565b610b9e81610b8c565b82525050565b5f81519050919050565b5f82825260208201905092915050565b5f5b83811015610bdb578082015181840152602081019050610bc0565b5f8484015250505050565b5f610bf082610ba4565b610bfa8185610bae565b9350610c0a818560208601610bbe565b610c1381610985565b840191505092915050565b5f8115159050919050565b610c3281610c1e565b82525050565b5f60a083015f830151610c4d5f860182610b3e565b506020830151610c606020860182610b7d565b506040830151610c736040860182610b95565b5060608301518482036060860152610c8b8282610be6565b9150506080830151610ca06080860182610c29565b508091505092915050565b5f6020820190508181035f830152610cc38184610c38565b905092915050565b5f819050919050565b5f610cee610ce9610ce484610b4d565b610ccb565b610b4d565b9050919050565b5f610cff82610cd4565b9050919050565b5f610d1082610cf5565b9050919050565b610d2081610d06565b82525050565b5f602082019050610d395f830184610d17565b92915050565b610d4881610c1e565b82525050565b610d5781610b6c565b82525050565b610d6681610b8c565b82525050565b5f606082019050610d7f5f830186610d3f565b610d8c6020830185610d4e565b610d996040830184610d5d565b949350505050565b610daa8161094a565b82525050565b5f82825260208201905092915050565b5f610dca82610ba4565b610dd48185610db0565b9350610de4818560208601610bbe565b610ded81610985565b840191505092915050565b5f60a082019050610e0b5f830188610da1565b610e186020830187610d4e565b610e256040830186610d5d565b8181036060830152610e378185610dc0565b9050610e466080830184610d3f565b9695505050505050565b610e5981610b6c565b8114610e63575f80fd5b50565b5f81359050610e7481610e50565b92915050565b5f8060408385031215610e9057610e8f610942565b5b5f610e9d85828601610969565b9250506020610eae85828601610e66565b9150509250929050565b5f602082019050610ecb5f830184610d3f565b92915050565b610eda81610b8c565b8114610ee4575f80fd5b50565b5f81359050610ef581610ed1565b92915050565b5f60208284031215610f1057610f0f610942565b5b5f610f1d84828501610ee7565b91505092915050565b5f602082019050610f395f830184610da1565b92915050565b5f602082019050610f525f830184610d5d565b92915050565b5f602082019050610f6b5f830184610d4e565b92915050565b610f7a81610c1e565b8114610f84575f80fd5b50565b5f81519050610f9581610f71565b92915050565b5f60208284031215610fb057610faf610942565b5b5f610fbd84828501610f87565b91505092915050565b7f596f75206d7573742062652061207665726966696564207075626c69736865725f82015250565b5f610ffa602083610db0565b915061100582610fc6565b602082019050919050565b5f6020820190508181035f83015261102781610fee565b9050919050565b7f41727469636c6520616c726561647920726567697374657265640000000000005f82015250565b5f611062601a83610db0565b915061106d8261102e565b602082019050919050565b5f6020820190508181035f83015261108f81611056565b9050919050565b7f4e487b71000000000000000000000000000000000000000000000000000000005f52602260045260245ffd5b5f60028204905060018216806110da57607f821691505b6020821081036110ed576110ec611096565b5b50919050565b5f819050815f5260205f209050919050565b5f6020601f8301049050919050565b5f82821b905092915050565b5f6008830261114f7fffffffffffffffffffffffffffffffffffffffffffffffffffffffffffffffff82611114565b6111598683611114565b95508019841693508086168417925050509392505050565b5f61118b61118661118184610b8c565b610ccb565b610b8c565b9050919050565b5f819050919050565b6111a483611171565b6111b86111b082611192565b848454611120565b825550505050565b5f90565b6111cc6111c0565b6111d781848461119b565b505050565b5b818110156111fa576111ef5f826111c4565b6001810190506111dd565b5050565b601f82111561123f57611210816110f3565b61121984611105565b81016020851015611228578190505b61123c61123485611105565b8301826111dc565b50505b505050565b5f82821c905092915050565b5f61125f5f1984600802611244565b1980831691505092915050565b5f6112778383611250565b9150826002028217905092915050565b61129082610ba4565b67ffffffffffffffff8111156112a9576112a8610995565b5b6112b382546110c3565b6112be8282856111fe565b5f60209050601f8311600181146112ef575f84156112dd578287015190505b6112e7858261126c565b86555061134e565b601f1984166112fd866110f3565b5f5b82811015611324578489015182556001820191506020850194506020810190506112ff565b86831015611341578489015161133d601f891682611250565b8355505b6001600288020188555050505b505050505050565b5f6040820190508181035f83015261136e8185610dc0565b905061137d6020830184610d5d565b9392505050565b7f41727469636c65206e6f7420666f756e640000000000000000000000000000005f82015250565b5f6113b8601183610db0565b91506113c382611384565b602082019050919050565b5f6020820190508181035f8301526113e5816113ac565b905091905056fea26469706673582212204c5dec955e572b5b53d1c7cf489e0f7b2fae6a4ce7da4fa72bc26cebe9ae75d764736f6c63430008150033",
  "immutableReferences": {},
  "source": "// SPDX-License-Identifier: MIT\npragma solidity ^0.8.0;\n\n/**\n * ARTICLE REGISTRY CONTRACT\n * \n * Think: Library catalog - records when articles were published\n * \n * What it stores:\n * - Article hash (unique fingerprint of content)\n * - Publisher who posted it\n * - Timestamp when posted\n * - Language (hindi/gujarati/marathi/telugu)\n * \n * Why hash instead of full text?\n * - Blockchain storage is expensive\n * - Hash = 32 bytes vs Article = thousands of bytes\n * - Hash uniquely identifies article\n * - Can verify \"this article was posted on this date\"\n */\n\nimport \"./PublisherRegistry.sol\";\n\ncontract ArticleRegistry {\n    \n    // ============================================\n    // DATA STRUCTURES\n    // ============================================\n    \n    /**\n     * Article struct - Metadata about an article\n     */\n    struct Article {\n        bytes32 contentHash;      // SHA-256 hash of article text\n        address publisher;        // Who published it\n        uint256 timestamp;        // When published\n        string language;          // hindi/gujarati/marathi/telugu\n        bool exists;              // Does this article exist?\n    }\n    \n    // Mapping: contentHash  Article\n    // Like: {'0xa3f2...': Article(...)}\n    mapping(bytes32 => Article) public articles;\n    \n    // Array of all article hashes\n    bytes32[] public articleHashes;\n    \n    // Reference to PublisherRegistry (to verify publishers)\n    PublisherRegistry public publisherRegistry;\n    \n    // ============================================\n    // EVENTS\n    // ============================================\n    \n    event ArticleRegistered(\n        bytes32 indexed contentHash,\n        address indexed publisher,\n        string language,\n        uint256 timestamp\n    );\n    \n    // ============================================\n    // CONSTRUCTOR\n    // ============================================\n    \n    /**\n     * @param _publisherRegistry Address of deployed PublisherRegistry\n     */\n    constructor(address _publisherRegistry) {\n        publisherRegistry = PublisherRegistry(_publisherRegistry);\n    }\n    \n    // ============================================\n    // FUNCTIONS\n    // ============================================\n    \n    /**\n     * Register a new article\n     * \n     * Flow:\n     * 1. Publisher calls this with article hash\n     * 2. Contract checks: Is caller a verified publisher?\n     * 3. Contract checks: Was this article already registered?\n     * 4. Contract stores: hash, publisher, time, language\n     * \n     * @param _contentHash SHA-256 hash of article (32 bytes)\n     * @param _language Language code (e.g., \"hindi\")\n     * \n     * Example from Python:\n     * hash = hashlib.sha256(article_text.encode()).digest()\n     * contract.registerArticle(hash, \"hindi\")\n     */\n    function registerArticle(bytes32 _contentHash, string memory _language) \n        public \n    {\n        // Only verified publishers can register articles\n        require(\n            publisherRegistry.isVerified(msg.sender),\n            \"You must be a verified publisher\"\n        );\n        \n        // Article can't already exist\n        require(\n            !articles[_contentHash].exists,\n            \"Article already registered\"\n        );\n        \n        // Create article record\n        articles[_contentHash] = Article({\n            contentHash: _contentHash,\n            publisher: msg.sender,\n            timestamp: block.timestamp,  // Current blockchain time\n            language: _language,\n            exists: true\n        });\n        \n        // Add to array\n        articleHashes.push(_contentHash);\n        \n        // Emit event\n        emit ArticleRegistered(\n            _contentHash,\n            msg.sender,\n            _language,\n            block.timestamp\n        );\n    }\n    \n    /**\n     * Verify if article exists and get details\n     * \n     * @param _contentHash Article hash to check\n     * @return exists Does it exist?\n     * @return publisher Who published it?\n     * @return timestamp When was it published?\n     * \n     * Anyone can call this (public verification)\n     * \n     * Example:\n     * hash = hashlib.sha256(\"fake article text\".encode()).digest()\n     * exists, publisher, time = contract.verifyArticle(hash)\n     * if exists:\n     *     print(f\"Article was published by {publisher} on {time}\")\n     */\n    function verifyArticle(bytes32 _contentHash) \n        public \n        view \n        returns (\n            bool exists,\n            address publisher,\n            uint256 timestamp\n        ) \n    {\n        Article memory article = articles[_contentHash];\n        return (\n            article.exists,\n            article.publisher,\n            article.timestamp\n        );\n    }\n    \n    /**\n     * Get complete article details\n     * \n     * @param _contentHash Article hash\n     * @return Article Complete article struct\n     */\n    function getArticle(bytes32 _contentHash) \n        public \n        view \n        returns (Article memory) \n    {\n        require(articles[_contentHash].exists, \"Article not found\");\n        return articles[_contentHash];\n    }\n    \n    /**\n     * Get total number of registered articles\n     */\n    function getArticleCount() \n        public \n        view \n        returns (uint256) \n    {\n        return articleHashes.length;\n    }\n    \n    /**\n     * Check if article was published by specific publisher\n     * \n     * @param _contentHash Article hash\n     * @param _publisher Publisher address\n     * @return bool True if this publisher posted this article\n     */\n    function wasPublishedBy(bytes32 _contentHash, address _publisher) \n        public \n        view \n        returns (bool) \n    {\n        return articles[_contentHash].publisher == _publisher;\n    }\n}\n",
  "sourcePath": "/Users/Megha/finalyearproj/Hindi-Fake-News_detection/blockchain/contracts/ArticleRegistry.sol",
  "compiler": {
    "name": "solc",
    "version": "0.8.21+commit.d9974bed.Emscripten.clang"
  },
  "schemaVersion": "3.4.16",
  "updatedAt": "2026-02-08T23:30:20.473Z",
  "networkType": "ethereum",
  "devdoc": {
    "kind": "dev",
    "methods": {
      "constructor": {
        "params": {
          "_publisherRegistry": "Address of deployed PublisherRegistry"
        }
      },
      "getArticle(bytes32)": {
        "params": {
          "_contentHash": "Article hash"
        },
        "returns": {
          "_0": "Article Complete article struct"
        }
      },
      "registerArticle(bytes32,string)": {
        "params": {
          "_contentHash": "SHA-256 hash of article (32 bytes)",
          "_language": "Language code (e.g., \"hindi\")  Example from Python: hash = hashlib.sha256(article_text.encode()).digest() contract.registerArticle(hash, \"hindi\")"
        }
      },
      "verifyArticle(bytes32)": {
        "params": {
          "_contentHash": "Article hash to check"
        },
        "returns": {
          "exists": "Does it exist?",
          "publisher": "Who published it?",
          "timestamp": "When was it published?  Anyone can call this (public verification)  Example: hash = hashlib.sha256(\"fake article text\".encode()).digest() exists, publisher, time = contract.verifyArticle(hash) if exists:     print(f\"Article was published by {publisher} on {time}\")"
        }
      },
      "wasPublishedBy(bytes32,address)": {
        "params": {
          "_contentHash": "Article hash",
          "_publisher": "Publisher address"
        },
        "returns": {
          "_0": "bool True if this publisher posted this article"
        }
      }
    },
    "version": 1
  },
  "userdoc": {
    "kind": "user",
    "methods": {
      "getArticle(bytes32)": {
        "notice": "Get complete article details "
      },
      "getArticleCount()": {
        "notice": "Get total number of registered articles"
      },
      "registerArticle(bytes32,string)": {
        "notice": "Register a new article  Flow: 1. Publisher calls this with article hash 2. Contract checks: Is caller a verified publisher? 3. Contract checks: Was this article already registered? 4. Contract stores: hash, publisher, time, language "
      },
      "verifyArticle(bytes32)": {
        "notice": "Verify if article exists and get details "
      },
      "wasPublishedBy(bytes32,address)": {
        "notice": "Check if article was published by specific publisher "
      }
    },
    "version": 1
  }
}