{
  "contractName": "PublisherRegistry",
  "abi": [
    {
      "inputs": [],
      "stateMutability": "nonpayable",
      "type": "constructor"
    },
    {
      "anonymous": false,
      "inputs": [
        {
          "indexed": true,
          "internalType": "address",
          "name": "publisher",
          "type": "address"
        }
      ],
      "name": "PublisherDeactivated",
      "type": "event"
    },
    {
      "anonymous": false,
      "inputs": [
        {
          "indexed": true,
          "internalType": "address",
          "name": "publisher",
          "type": "address"
        },
        {
          "indexed": false,
          "internalType": "string",
          "name": "name",
          "type": "string"
        }
      ],
      "name": "PublisherRegistered",
      "type": "event"
    },
    {
      "anonymous": false,
      "inputs": [
        {
          "indexed": true,
          "internalType": "address",
          "name": "publisher",
          "type": "address"
        },
        {
          "indexed": false,
          "internalType": "uint256",
          "name": "newScore",
          "type": "uint256"
        }
      ],
      "name": "ReputationUpdated",
      "type": "event"
    },
    {
      "inputs": [],
      "name": "admin",
      "outputs": [
        {
          "internalType": "address",
          "name": "",
          "type": "address"
        }
      ],
      "stateMutability": "view",
      "type": "function",
      "constant": true
    },
    {
      "inputs": [
        {
          "internalType": "uint256",
          "name": "",
          "type": "uint256"
        }
      ],
      "name": "publisherAddresses",
      "outputs": [
        {
          "internalType": "address",
          "name": "",
          "type": "address"
        }
      ],
      "stateMutability": "view",
      "type": "function",
      "constant": true
    },
    {
      "inputs": [
        {
          "internalType": "address",
          "name": "",
          "type": "address"
        }
      ],
      "name": "publishers",
      "outputs": [
        {
          "internalType": "string",
          "name": "name",
          "type": "string"
        },
        {
          "internalType": "address",
          "name": "walletAddress",
          "type": "address"
        },
        {
          "internalType": "uint256",
          "name": "reputationScore",
          "type": "uint256"
        },
        {
          "internalType": "uint256",
          "name": "registrationTime",
          "type": "uint256"
        },
        {
          "internalType": "bool",
          "name": "isActive",
          "type": "bool"
        }
      ],
      "stateMutability": "view",
      "type": "function",
      "constant": true
    },
    {
      "inputs": [
        {
          "internalType": "address",
          "name": "_publisher",
          "type": "address"
        },
        {
          "internalType": "string",
          "name": "_name",
          "type": "string"
        }
      ],
      "name": "registerPublisher",
      "outputs": [],
      "stateMutability": "nonpayable",
      "type": "function"
    },
    {
      "inputs": [
        {
          "internalType": "address",
          "name": "_publisher",
          "type": "address"
        },
        {
          "internalType": "uint256",
          "name": "_newScore",
          "type": "uint256"
        }
      ],
      "name": "updateReputation",
      "outputs": [],
      "stateMutability": "nonpayable",
      "type": "function"
    },
    {
      "inputs": [
        {
          "internalType": "address",
          "name": "_publisher",
          "type": "address"
        }
      ],
      "name": "deactivatePublisher",
      "outputs": [],
      "stateMutability": "nonpayable",
      "type": "function"
    },
    {
      "inputs": [
        {
          "internalType": "address",
          "name": "_publisher",
          "type": "address"
        }
      ],
      "name": "isVerified",
      "outputs": [
        {
          "internalType": "bool",
          "name": "",
          "type": "bool"
        }
      ],
      "stateMutability": "view",
      "type": "function",
      "constant": true
    },
    {
      "inputs": [
        {
          "internalType": "address",
          "name": "_publisher",
          "type": "address"
        }
      ],
      "name": "getPublisher",
      "outputs": [
        {
          "components": [
            {
              "internalType": "string",
              "name": "name",
              "type": "string"
            },
            {
              "internalType": "address",
              "name": "walletAddress",
              "type": "address"
            },
            {
              "internalType": "uint256",
              "name": "reputationScore",
              "type": "uint256"
            },
            {
              "internalType": "uint256",
              "name": "registrationTime",
              "type": "uint256"
            },
            {
              "internalType": "bool",
              "name": "isActive",
              "type": "bool"
            }
          ],
          "internalType": "struct PublisherRegistry.Publisher",
          "name": "",
          "type": "tuple"
        }
      ],
      "stateMutability": "view",
      "type": "function",
      "constant": true
    },
    {
      "inputs": [],
      "name": "getPublisherCount",
      "outputs": [
        {
          "internalType": "uint256",
          "name": "",
          "type": "uint256"
        }
      ],
      "stateMutability": "view",
      "type": "function",
      "constant": true
    }
  ],
  "bytecode": "0x608060405234801561000f575f80fd5b503360025f6101000a81548173ffffffffffffffffffffffffffffffffffffffff021916908373ffffffffffffffffffffffffffffffffffffffff1602179055506115138061005d5f395ff3fe608060405234801561000f575f80fd5b5060043610610091575f3560e01c8063b9209e3311610064578063b9209e3314610147578063bb09a8b214610177578063f5c91a0814610193578063f851a440146101af578063fd9935e8146101cd57610091565b80630a4d85cd146100955780631df550f7146100c957806336d0cf42146100f95780638b043e0814610117575b5f80fd5b6100af60048036038101906100aa9190610b9a565b6101e9565b6040516100c0959493929190610c90565b60405180910390f35b6100e360048036038101906100de9190610d12565b6102cb565b6040516100f09190610d3d565b60405180910390f35b610101610306565b60405161010e9190610d56565b60405180910390f35b610131600480360381019061012c9190610b9a565b610312565b60405161013e9190610e57565b60405180910390f35b610161600480360381019061015c9190610b9a565b61047a565b60405161016e9190610e77565b60405180910390f35b610191600480360381019061018c9190610fbc565b6104ce565b005b6101ad60048036038101906101a89190611016565b6107a8565b005b6101b761099c565b6040516101c49190610d3d565b60405180910390f35b6101e760048036038101906101e29190610b9a565b6109c1565b005b5f602052805f5260405f205f91509050805f01805461020790611081565b80601f016020809104026020016040519081016040528092919081815260200182805461023390611081565b801561027e5780601f106102555761010080835404028352916020019161027e565b820191905f5260205f20905b81548152906001019060200180831161026157829003601f168201915b505050505090806001015f9054906101000a900473ffffffffffffffffffffffffffffffffffffffff1690806002015490806003015490806004015f9054906101000a900460ff16905085565b600181815481106102da575f80fd5b905f5260205f20015f915054906101000a900473ffffffffffffffffffffffffffffffffffffffff1681565b5f600180549050905090565b61031a610aec565b5f808373ffffffffffffffffffffffffffffffffffffffff1673ffffffffffffffffffffffffffffffffffffffff1681526020019081526020015f206040518060a00160405290815f8201805461037090611081565b80601f016020809104026020016040519081016040528092919081815260200182805461039c90611081565b80156103e75780601f106103be576101008083540402835291602001916103e7565b820191905f5260205f20905b8154815290600101906020018083116103ca57829003601f168201915b50505050508152602001600182015f9054906101000a900473ffffffffffffffffffffffffffffffffffffffff1673ffffffffffffffffffffffffffffffffffffffff1673ffffffffffffffffffffffffffffffffffffffff1681526020016002820154815260200160038201548152602001600482015f9054906101000a900460ff1615151515815250509050919050565b5f805f8373ffffffffffffffffffffffffffffffffffffffff1673ffffffffffffffffffffffffffffffffffffffff1681526020019081526020015f206004015f9054906101000a900460ff169050919050565b60025f9054906101000a900473ffffffffffffffffffffffffffffffffffffffff1673ffffffffffffffffffffffffffffffffffffffff163373ffffffffffffffffffffffffffffffffffffffff161461055d576040517f08c379a0000000000000000000000000000000000000000000000000000000008152600401610554906110fb565b60405180910390fd5b5f808373ffffffffffffffffffffffffffffffffffffffff1673ffffffffffffffffffffffffffffffffffffffff1681526020019081526020015f206004015f9054906101000a900460ff16156105e9576040517f08c379a00000000000000000000000000000000000000000000000000000000081526004016105e090611163565b60405180910390fd5b6040518060a001604052808281526020018373ffffffffffffffffffffffffffffffffffffffff16815260200160648152602001428152602001600115158152505f808473ffffffffffffffffffffffffffffffffffffffff1673ffffffffffffffffffffffffffffffffffffffff1681526020019081526020015f205f820151815f019081610679919061131e565b506020820151816001015f6101000a81548173ffffffffffffffffffffffffffffffffffffffff021916908373ffffffffffffffffffffffffffffffffffffffff16021790555060408201518160020155606082015181600301556080820151816004015f6101000a81548160ff021916908315150217905550905050600182908060018154018082558091505060019003905f5260205f20015f9091909190916101000a81548173ffffffffffffffffffffffffffffffffffffffff021916908373ffffffffffffffffffffffffffffffffffffffff1602179055508173ffffffffffffffffffffffffffffffffffffffff167f510e160a1de76ff46261790883732c012d8ad69daae326ccc6aaa711fe3d56dc8260405161079c91906113ed565b60405180910390a25050565b60025f9054906101000a900473ffffffffffffffffffffffffffffffffffffffff1673ffffffffffffffffffffffffffffffffffffffff163373ffffffffffffffffffffffffffffffffffffffff1614610837576040517f08c379a000000000000000000000000000000000000000000000000000000000815260040161082e906110fb565b60405180910390fd5b5f808373ffffffffffffffffffffffffffffffffffffffff1673ffffffffffffffffffffffffffffffffffffffff1681526020019081526020015f206004015f9054906101000a900460ff166108c2576040517f08c379a00000000000000000000000000000000000000000000000000000000081526004016108b990611457565b60405180910390fd5b6064811115610906576040517f08c379a00000000000000000000000000000000000000000000000000000000081526004016108fd906114bf565b60405180910390fd5b805f808473ffffffffffffffffffffffffffffffffffffffff1673ffffffffffffffffffffffffffffffffffffffff1681526020019081526020015f20600201819055508173ffffffffffffffffffffffffffffffffffffffff167ffc577563f1b9a0461e24abef1e1fcc0d33d3d881f20b5df6dda59de4aae2c821826040516109909190610d56565b60405180910390a25050565b60025f9054906101000a900473ffffffffffffffffffffffffffffffffffffffff1681565b60025f9054906101000a900473ffffffffffffffffffffffffffffffffffffffff1673ffffffffffffffffffffffffffffffffffffffff163373ffffffffffffffffffffffffffffffffffffffff1614610a50576040517f08c379a0000000000000000000000000000000000000000000000000000000008152600401610a47906110fb565b60405180910390fd5b5f805f8373ffffffffffffffffffffffffffffffffffffffff1673ffffffffffffffffffffffffffffffffffffffff1681526020019081526020015f206004015f6101000a81548160ff0219169083151502179055508073ffffffffffffffffffffffffffffffffffffffff167f5de512bf6b0ed0936054bc1177e637d0db80896822e565a02c0a8b8917c1bd5d60405160405180910390a250565b6040518060a00160405280606081526020015f73ffffffffffffffffffffffffffffffffffffffff1681526020015f81526020015f81526020015f151581525090565b5f604051905090565b5f80fd5b5f80fd5b5f73ffffffffffffffffffffffffffffffffffffffff82169050919050565b5f610b6982610b40565b9050919050565b610b7981610b5f565b8114610b83575f80fd5b50565b5f81359050610b9481610b70565b92915050565b5f60208284031215610baf57610bae610b38565b5b5f610bbc84828501610b86565b91505092915050565b5f81519050919050565b5f82825260208201905092915050565b5f5b83811015610bfc578082015181840152602081019050610be1565b5f8484015250505050565b5f601f19601f8301169050919050565b5f610c2182610bc5565b610c2b8185610bcf565b9350610c3b818560208601610bdf565b610c4481610c07565b840191505092915050565b610c5881610b5f565b82525050565b5f819050919050565b610c7081610c5e565b82525050565b5f8115159050919050565b610c8a81610c76565b82525050565b5f60a0820190508181035f830152610ca88188610c17565b9050610cb76020830187610c4f565b610cc46040830186610c67565b610cd16060830185610c67565b610cde6080830184610c81565b9695505050505050565b610cf181610c5e565b8114610cfb575f80fd5b50565b5f81359050610d0c81610ce8565b92915050565b5f60208284031215610d2757610d26610b38565b5b5f610d3484828501610cfe565b91505092915050565b5f602082019050610d505f830184610c4f565b92915050565b5f602082019050610d695f830184610c67565b92915050565b5f82825260208201905092915050565b5f610d8982610bc5565b610d938185610d6f565b9350610da3818560208601610bdf565b610dac81610c07565b840191505092915050565b610dc081610b5f565b82525050565b610dcf81610c5e565b82525050565b610dde81610c76565b82525050565b5f60a083015f8301518482035f860152610dfe8282610d7f565b9150506020830151610e136020860182610db7565b506040830151610e266040860182610dc6565b506060830151610e396060860182610dc6565b506080830151610e4c6080860182610dd5565b508091505092915050565b5f6020820190508181035f830152610e6f8184610de4565b905092915050565b5f602082019050610e8a5f830184610c81565b92915050565b5f80fd5b5f80fd5b7f4e487b71000000000000000000000000000000000000000000000000000000005f52604160045260245ffd5b610ece82610c07565b810181811067ffffffffffffffff82111715610eed57610eec610e98565b5b80604052505050565b5f610eff610b2f565b9050610f0b8282610ec5565b919050565b5f67ffffffffffffffff821115610f2a57610f29610e98565b5b610f3382610c07565b9050602081019050919050565b828183375f83830152505050565b5f610f60610f5b84610f10565b610ef6565b905082815260208101848484011115610f7c57610f7b610e94565b5b610f87848285610f40565b509392505050565b5f82601f830112610fa357610fa2610e90565b5b8135610fb3848260208601610f4e565b91505092915050565b5f8060408385031215610fd257610fd1610b38565b5b5f610fdf85828601610b86565b925050602083013567ffffffffffffffff81111561100057610fff610b3c565b5b61100c85828601610f8f565b9150509250929050565b5f806040838503121561102c5761102b610b38565b5b5f61103985828601610b86565b925050602061104a85828601610cfe565b9150509250929050565b7f4e487b71000000000000000000000000000000000000000000000000000000005f52602260045260245ffd5b5f600282049050600182168061109857607f821691505b6020821081036110ab576110aa611054565b5b50919050565b7f4f6e6c792061646d696e2063616e20646f2074686973000000000000000000005f82015250565b5f6110e5601683610bcf565b91506110f0826110b1565b602082019050919050565b5f6020820190508181035f830152611112816110d9565b9050919050565b7f416c7265616479207265676973746572656400000000000000000000000000005f82015250565b5f61114d601283610bcf565b915061115882611119565b602082019050919050565b5f6020820190508181035f83015261117a81611141565b9050919050565b5f819050815f5260205f209050919050565b5f6020601f8301049050919050565b5f82821b905092915050565b5f600883026111dd7fffffffffffffffffffffffffffffffffffffffffffffffffffffffffffffffff826111a2565b6111e786836111a2565b95508019841693508086168417925050509392505050565b5f819050919050565b5f61122261121d61121884610c5e565b6111ff565b610c5e565b9050919050565b5f819050919050565b61123b83611208565b61124f61124782611229565b8484546111ae565b825550505050565b5f90565b611263611257565b61126e818484611232565b505050565b5b81811015611291576112865f8261125b565b600181019050611274565b5050565b601f8211156112d6576112a781611181565b6112b084611193565b810160208510156112bf578190505b6112d36112cb85611193565b830182611273565b50505b505050565b5f82821c905092915050565b5f6112f65f19846008026112db565b1980831691505092915050565b5f61130e83836112e7565b9150826002028217905092915050565b61132782610bc5565b67ffffffffffffffff8111156113405761133f610e98565b5b61134a8254611081565b611355828285611295565b5f60209050601f831160018114611386575f8415611374578287015190505b61137e8582611303565b8655506113e5565b601f19841661139486611181565b5f5b828110156113bb57848901518255600182019150602085019450602081019050611396565b868310156113d857848901516113d4601f8916826112e7565b8355505b6001600288020188555050505b505050505050565b5f6020820190508181035f8301526114058184610c17565b905092915050565b7f5075626c6973686572206e6f7420666f756e64000000000000000000000000005f82015250565b5f611441601383610bcf565b915061144c8261140d565b602082019050919050565b5f6020820190508181035f83015261146e81611435565b9050919050565b7f53636f7265206d75737420626520302d313030000000000000000000000000005f82015250565b5f6114a9601383610bcf565b91506114b482611475565b602082019050919050565b5f6020820190508181035f8301526114d68161149d565b905091905056fea26469706673582212209bf54bc14c9603b0ad97a63af990821b13b13712b7b0c8003741f30c436fbab464736f6c63430008150033",
  "immutableReferences": {},
  "source": "// SPDX-License-Identifier: MIT\npragma solidity ^0.8.0;\n\n/**\n * PUBLISHER REGISTRY CONTRACT\n * \n * Think: Database of verified publishers (like Twitter verified checkmarks)\n * \n * What it stores:\n * - Publisher name (e.g., \"BBC News\")\n * - Wallet address (their blockchain ID)\n * - Reputation score (0-100)\n * - Registration date\n * - Active status\n * \n * Who can use it:\n * - Admin: Can add/remove publishers\n * - Anyone: Can check if publisher is verified\n */\n\ncontract PublisherRegistry {\n    \n    // ============================================\n    // DATA STRUCTURES\n    // ============================================\n    \n    /**\n     * Publisher struct - Think: Database row for each publisher\n     */\n    struct Publisher {\n        string name;              // \"BBC News\"\n        address walletAddress;    // 0x742d35Cc...\n        uint256 reputationScore;  // 0 to 100\n        uint256 registrationTime; // Unix timestamp\n        bool isActive;            // true/false\n    }\n    \n    // Mapping = Dictionary in Python\n    // Key: address  Value: Publisher struct\n    mapping(address => Publisher) public publishers;\n    \n    // Array of all publisher addresses (for iteration)\n    address[] public publisherAddresses;\n    \n    // Admin address (only admin can add publishers)\n    address public admin;\n    \n    // ============================================\n    // EVENTS (Like console.log but on blockchain)\n    // ============================================\n    \n    event PublisherRegistered(address indexed publisher, string name);\n    event PublisherDeactivated(address indexed publisher);\n    event ReputationUpdated(address indexed publisher, uint256 newScore);\n    \n    // ============================================\n    // MODIFIERS (Access Control)\n    // ============================================\n    \n\n    modifier onlyAdmin() {\n        require(msg.sender == admin, \"Only admin can do this\");\n        _;\n    }\n    \n    // ============================================\n    // CONSTRUCTOR (Runs once when deployed)\n    // ============================================\n    \n    constructor() {\n        // Person who deploys contract becomes admin\n        admin = msg.sender;\n    }\n    \n    // ============================================\n    // FUNCTIONS\n    // ============================================\n    \n    /**\n     * Register a new publisher\n     * \n     * @param _publisher Address of the publisher\n     * @param _name Name of the publisher (e.g., \"BBC\")\n     * \n     * Only admin can call this\n     */\n    function registerPublisher(address _publisher, string memory _name) \n        public \n        onlyAdmin \n    {\n        // Check publisher isn't already registered\n        require(!publishers[_publisher].isActive, \"Already registered\");\n        \n        // Create new publisher\n        publishers[_publisher] = Publisher({\n            name: _name,\n            walletAddress: _publisher,\n            reputationScore: 100,  // Start with perfect score\n            registrationTime: block.timestamp,  // Current time\n            isActive: true\n        });\n        \n        // Add to array\n        publisherAddresses.push(_publisher);\n        \n        // Emit event (like logging)\n        emit PublisherRegistered(_publisher, _name);\n    }\n    \n    /**\n     * Update publisher reputation\n     * \n     * @param _publisher Publisher address\n     * @param _newScore New reputation score (0-100)\n     */\n    function updateReputation(address _publisher, uint256 _newScore) \n        public \n        onlyAdmin \n    {\n        require(publishers[_publisher].isActive, \"Publisher not found\");\n        require(_newScore <= 100, \"Score must be 0-100\");\n        \n        publishers[_publisher].reputationScore = _newScore;\n        emit ReputationUpdated(_publisher, _newScore);\n    }\n    \n    /**\n     * Deactivate a publisher (like banning)\n     * \n     * @param _publisher Publisher address\n     */\n    function deactivatePublisher(address _publisher) \n        public \n        onlyAdmin \n    {\n        publishers[_publisher].isActive = false;\n        emit PublisherDeactivated(_publisher);\n    }\n    \n    /**\n     * Check if address is a verified publisher\n     * \n     * @param _publisher Address to check\n     * @return bool True if verified\n     * \n     * Anyone can call this (public read)\n     */\n    function isVerified(address _publisher) \n        public \n        view \n        returns (bool) \n    {\n        return publishers[_publisher].isActive;\n    }\n    \n    /**\n     * Get publisher details\n     * \n     * @param _publisher Publisher address\n     * @return Publisher struct\n     */\n    function getPublisher(address _publisher) \n        public \n        view \n        returns (Publisher memory) \n    {\n        return publishers[_publisher];\n    }\n    \n    /**\n     * Get total number of publishers\n     */\n    function getPublisherCount() \n        public \n        view \n        returns (uint256) \n    {\n        return publisherAddresses.length;\n    }\n}\n",
  "sourcePath": "/Users/Megha/finalyearproj/Hindi-Fake-News_detection/blockchain/contracts/PublisherRegistry.sol",
  "compiler": {
    "name": "solc",
    "version": "0.8.21+commit.d9974bed.Emscripten.clang"
  },
  "schemaVersion": "3.4.16",
  "updatedAt": "2026-02-08T23:30:20.469Z",
  "networkType": "ethereum",
  "devdoc": {
    "kind": "dev",
    "methods": {
      "deactivatePublisher(address)": {
        "params": {
          "_publisher": "Publisher address"
        }
      },
      "getPublisher(address)": {
        "params": {
          "_publisher": "Publisher address"
        },
        "returns": {
          "_0": "Publisher struct"
        }
      },
      "isVerified(address)": {
        "params": {
          "_publisher": "Address to check"
        },
        "returns": {
          "_0": "bool True if verified  Anyone can call this (public read)"
        }
      },
      "registerPublisher(address,string)": {
        "params": {
          "_name": "Name of the publisher (e.g., \"BBC\")  Only admin can call this",
          "_publisher": "Address of the publisher"
        }
      },
      "updateReputation(address,uint256)": {
        "params": {
          "_newScore": "New reputation score (0-100)",
          "_publisher": "Publisher address"
        }
      }
    },
    "version": 1
  },
  "userdoc": {
    "kind": "user",
    "methods": {
      "deactivatePublisher(address)": {
        "notice": "Deactivate a publisher (like banning) "
      },
      "getPublisher(address)": {
        "notice": "Get publisher details "
      },
      "getPublisherCount()": {
        "notice": "Get total number of publishers"
      },
      "isVerified(address)": {
        "notice": "Check if address is a verified publisher "
      },
      "registerPublisher(address,string)": {
        "notice": "Register a new publisher "
      },
      "updateReputation(address,uint256)": {
        "notice": "Update publisher reputation "
      }
    },
    "notice": "PUBLISHER REGISTRY CONTRACT  Think: Database of verified publishers (like Twitter verified checkmarks)  What it stores: - Publisher name (e.g., \"BBC News\") - Wallet address (their blockchain ID) - Reputation score (0-100) - Registration date - Active status  Who can use it: - Admin: Can add/remove publishers - Anyone: Can check if publisher is verified",
    "version": 1
  }
}